{
  "contractName": "splitwise",
  "abi": [
    {
      "inputs": [],
      "payable": false,
      "stateMutability": "nonpayable",
      "type": "constructor"
    },
    {
      "constant": true,
      "inputs": [],
      "name": "getContractBalance",
      "outputs": [
        {
          "name": "",
          "type": "uint256"
        }
      ],
      "payable": false,
      "stateMutability": "view",
      "type": "function"
    },
    {
      "constant": false,
      "inputs": [
        {
          "name": "_billamount",
          "type": "uint256"
        }
      ],
      "name": "setbillamount",
      "outputs": [],
      "payable": false,
      "stateMutability": "nonpayable",
      "type": "function"
    },
    {
      "constant": false,
      "inputs": [],
      "name": "addfund",
      "outputs": [],
      "payable": true,
      "stateMutability": "payable",
      "type": "function"
    },
    {
      "constant": false,
      "inputs": [
        {
          "name": "_biller",
          "type": "address"
        }
      ],
      "name": "paybill",
      "outputs": [],
      "payable": false,
      "stateMutability": "nonpayable",
      "type": "function"
    },
    {
      "constant": true,
      "inputs": [],
      "name": "findremainingamount",
      "outputs": [
        {
          "name": "",
          "type": "uint256"
        }
      ],
      "payable": false,
      "stateMutability": "view",
      "type": "function"
    },
    {
      "constant": false,
      "inputs": [],
      "name": "withdraw",
      "outputs": [],
      "payable": false,
      "stateMutability": "nonpayable",
      "type": "function"
    }
  ],
  "bytecode": "0x60806040526000600155600060025534801561001a57600080fd5b50336000806101000a81548173ffffffffffffffffffffffffffffffffffffffff021916908373ffffffffffffffffffffffffffffffffffffffff1602179055506106b98061006a6000396000f300608060405260043610610078576000357c0100000000000000000000000000000000000000000000000000000000900463ffffffff1680633ccfd60b1461007d5780636f52e900146100945780636f9fb98a146100bf5780637ce5dc95146100ea5780638f9595d41461012d578063b1c4f91b14610137575b600080fd5b34801561008957600080fd5b50610092610164565b005b3480156100a057600080fd5b506100a9610336565b6040518082815260200191505060405180910390f35b3480156100cb57600080fd5b506100d4610395565b6040518082815260200191505060405180910390f35b3480156100f657600080fd5b5061012b600480360381019080803573ffffffffffffffffffffffffffffffffffffffff1690602001909291905050506103b4565b005b61013561046c565b005b34801561014357600080fd5b5061016260048036038101908080359060200190929190505050610628565b005b6000806000801515600460003373ffffffffffffffffffffffffffffffffffffffff1673ffffffffffffffffffffffffffffffffffffffff16815260200190815260200160002060009054906101000a900460ff1615151415610331576001600460003373ffffffffffffffffffffffffffffffffffffffff1673ffffffffffffffffffffffffffffffffffffffff16815260200190815260200160002060006101000a81548160ff021916908315150217905550600092505b6005805490508310156102d0573373ffffffffffffffffffffffffffffffffffffffff1660058481548110151561025157fe5b906000526020600020906002020160010160009054906101000a900473ffffffffffffffffffffffffffffffffffffffff1673ffffffffffffffffffffffffffffffffffffffff1614156102c3576005838154811015156102ae57fe5b90600052602060002090600202016000015491505b828060010193505061021e565b6002546102db610336565b83028115156102e657fe5b0490503373ffffffffffffffffffffffffffffffffffffffff166108fc829081150290604051600060405180830381858888f1935050505015801561032f573d6000803e3d6000fd5b505b505050565b600080600090505b60058054905081101561037f5760058181548110151561035a57fe5b906000526020600020906002020160000154600281905550808060010191505061033e565b6002546006540360078190555060075491505090565b60003073ffffffffffffffffffffffffffffffffffffffff1631905090565b6000809054906101000a900473ffffffffffffffffffffffffffffffffffffffff1673ffffffffffffffffffffffffffffffffffffffff163373ffffffffffffffffffffffffffffffffffffffff1614151561040f57600080fd5b6006543073ffffffffffffffffffffffffffffffffffffffff16311115610469578073ffffffffffffffffffffffffffffffffffffffff166108fc6006549081150290604051600060405180830381858888f19350505050505b50565b60006001600360003373ffffffffffffffffffffffffffffffffffffffff1673ffffffffffffffffffffffffffffffffffffffff16815260200190815260200160002060006101000a81548160ff02191690831515021790551561059157600090505b60058054905081101561058c573373ffffffffffffffffffffffffffffffffffffffff1660058281548110151561050257fe5b906000526020600020906002020160010160009054906101000a900473ffffffffffffffffffffffffffffffffffffffff1673ffffffffffffffffffffffffffffffffffffffff16141561057f573460058281548110151561056057fe5b9060005260206000209060020201600001600082825401925050819055505b80806001019150506104cf565b610625565b6001600360003373ffffffffffffffffffffffffffffffffffffffff1673ffffffffffffffffffffffffffffffffffffffff16815260200190815260200160002060006101000a81548160ff0219169083151502179055503460056001548154811015156105fb57fe5b90600052602060002090600202016000016000828254019250508190555060018054016001819055505b50565b6000809054906101000a900473ffffffffffffffffffffffffffffffffffffffff1673ffffffffffffffffffffffffffffffffffffffff163373ffffffffffffffffffffffffffffffffffffffff1614151561068357600080fd5b80600681905550505600a165627a7a72305820be3941620d88ee26b6bd0c1887f742676ad2e537158c0aed3c1556dcd3601afc0029",
  "source": "pragma solidity ^0.4.24;\r\n\r\ncontract splitwise {\r\n\r\nstruct Participant {\r\n        uint amount;\r\n        address partaddr;\r\n    }\r\naddress private _owner;\r\nuint numberofparti = 0; \r\nuint totalamountcol = 0;\r\nmapping (address => bool)  partifunded;\r\nmapping (address => bool)  withdrawed;\r\n\r\nParticipant[] participants;\r\nuint billamount;\r\nuint remainingamount;\r\n\r\nmodifier isOwner() {\r\n        require(msg.sender == _owner);\r\n        _;\r\n    }\r\n   \r\nfunction splitwise()\r\n        public {\r\n        _owner = msg.sender;\r\n    }\r\n   \r\n//view the contract balance\r\n    function getContractBalance()  public constant returns(uint){\r\n        return address(this).balance;\r\n    }\r\n\r\n//Just owner can set the bill amount\r\nfunction setbillamount(uint _billamount) public isOwner {\r\n\r\n    billamount = _billamount;\r\n}\r\n\r\n// add funds\r\nfunction addfund() payable public {\r\n\r\n    if (partifunded[msg.sender] = true) {\r\n        for (uint i = 0; i < participants.length; i++) {\r\n            if (participants[i].partaddr == msg.sender)\r\n             {\r\n                participants[i].amount += msg.value;\r\n             }\r\n        }\r\n    }\r\n    else\r\n    {\r\n        partifunded[msg.sender] = true;\r\n        participants[numberofparti].amount += msg.value;\r\n        numberofparti = numberofparti+1;\r\n    }\r\n\r\n}\r\n\r\n\r\nfunction paybill  ( address _biller) public isOwner{\r\n\r\n    if (this.balance > billamount ) {\r\n        _biller.send(billamount);\r\n    }\r\n}\r\n\r\nfunction findremainingamount() public constant returns(uint)    {\r\n\r\n    for (uint j = 0; j < participants.length; j++) {\r\n        totalamountcol = participants[j].amount ;\r\n        }   \r\n    remainingamount = billamount - totalamountcol;\r\n    return remainingamount;\r\n\r\n}\r\n\r\nfunction withdraw() {\r\n\r\nif (withdrawed[msg.sender] == false) {\r\n\r\n    withdrawed[msg.sender] = true;\r\n    for (uint k = 0; k < participants.length; k++) {\r\n            if (participants[k].partaddr == msg.sender) {\r\n                    uint partshare = participants[k].amount;\r\n                }\r\n        }   \r\n\r\n    uint balanceamount =(partshare) * (findremainingamount()) / totalamountcol  ;\r\n    msg.sender.transfer(balanceamount);\r\n    }   \r\n\r\n}\r\n\r\n}",
  "sourcePath": "C:\\Projects\\wallet\\project\\splitwise\\contracts\\sliptWise.sol",
  "compiler": {
    "name": "solc",
    "version": "0.4.24+commit.e67f0147.Emscripten.clang"
  },
  "schemaVersion": "2.0.1",
  "updatedAt": "2018-07-20T14:45:03.157Z"
}